:100000000C943E000C9450000C9450000C94500042
:100010000C9450000C9450000C9450000C94500020
:100020000C9450000C9450000C9450000C94500010
:100030000C9450000C9450000C9450000C94500000
:100040000C9450000C9450000C9450000C945000F0
:100050000C9450000B011C012D013E014F01600169
:10006000710182019301A401CC01DD01EE01FF01C8
:1000700010022102320243025402650211241FBE03
:10008000CFE5D8E0DEBFCDBF20E0A0E6B0E001C004
:100090001D92A036B207E1F70E9452000C940404AE
:1000A0000C94000080E00E94AD000E9471000E944C
:1000B000C20066E080E00E948E00C82F8C2F0E9454
:1000C000DB00CF5F46E060E08C2F0E9474002FEFD2
:1000D00089E698E1215080409040E1F700C000009F
:1000E000EDCF0E94960308951F93CF93DF9368305E
:1000F00088F4142FC62FD82F0E949C038C2F806564
:100100000E94AA03812F0E94C5038D2F0E94C50360
:100110000E94F703DF91CF911F910895CF93DF9352
:100120008830B0F4D62FC82F0E949C03C0658C2F56
:100130000E94AA038D2F0E94C5030E94E9038C2F01
:100140000E94B7030E94D403C82F0E94F70301C086
:10015000C0E08C2FDF91CF910895813049F018F0E5
:10016000823059F0089561E086E10E94900208957E
:1001700061E08BE10E949002089561E081E20E94BB
:100180009002089561E084E00E94900261E085E0C1
:100190000E94900261E086E00E94900261E087E0A8
:1001A0000E94900261E08CE00E94900261E08BE08E
:1001B0000E94900208958F929F92AF92BF92CF9229
:1001C000DF92EF92FF92CF939DEC899F812C1124B7
:1001D000C82CC694C694C694CC0C9C2D990F990F2C
:1001E000C90E8C19869486948694C2E3912CC82EED
:1001F000D12C61E08CE00E94130360E08BE00E9450
:1002000013038AE08816910408F0AEC0F401E65D9D
:10021000FF4F0C94FE0360E084E00E94130360E053
:1002200085E00E94130360E086E00E94130360E013
:1002300087E00E94130398C061E084E00E941303EA
:1002400060E085E00E94130360E086E00E941303F3
:1002500060E087E00E94130387C060E084E00E94B2
:10026000130361E085E00E94130360E086E00E94D2
:10027000130360E087E00E94130376C061E084E02E
:100280000E94130361E085E00E94130360E086E0B2
:100290000E94130360E087E00E94130365C060E0E2
:1002A00084E00E94130360E085E00E94130361E094
:1002B00086E00E94130360E087E00E94130354C0AD
:1002C00061E084E00E94130360E085E00E94130374
:1002D00061E086E00E94130360E087E00E94130360
:1002E00043C060E084E00E94130361E085E00E9467
:1002F000130361E086E00E94130360E087E00E9440
:10030000130332C061E084E00E94130361E085E0E2
:100310000E94130361E086E00E94130360E087E01F
:100320000E94130321C060E084E00E94130360E098
:1003300085E00E94130360E086E00E94130361E001
:1003400087E00E94130310C061E084E00E94130361
:1003500060E085E00E94130360E086E00E941303E2
:1003600061E087E00E9413038FE39CE90197F1F7B6
:1003700000C0000060E08CE00E94130361E08BE0AD
:100380000E9413039AE0C916D10408F0AEC0F6012A
:10039000EC5CFF4F0C94FE0360E084E00E941303CA
:1003A00060E085E00E94130360E086E00E94130392
:1003B00060E087E00E94130398C061E084E00E943F
:1003C000130360E085E00E94130360E086E00E9472
:1003D000130360E087E00E94130387C060E084E0BD
:1003E0000E94130361E085E00E94130360E086E051
:1003F0000E94130360E087E00E94130376C061E06F
:1004000084E00E94130361E085E00E94130360E032
:1004100086E00E94130360E087E00E94130365C03A
:1004200060E084E00E94130360E085E00E94130313
:1004300061E086E00E94130360E087E00E941303FE
:1004400054C061E084E00E94130360E085E00E94F4
:10045000130361E086E00E94130360E087E00E94DE
:10046000130343C060E084E00E94130361E085E071
:100470000E94130361E086E00E94130360E087E0BE
:100480000E94130332C061E084E00E94130361E024
:1004900085E00E94130361E086E00E94130360E0A0
:1004A00087E00E94130321C060E084E00E941303F0
:1004B00060E085E00E94130360E086E00E94130381
:1004C00061E087E00E94130310C061E084E00E94B5
:1004D000130360E085E00E94130360E086E00E9461
:1004E000130361E087E00E9413038FE39CE9019707
:1004F000F1F700C0000060E08CE00E94130360E0B0
:100500008BE00E941303C15009F073CECF91FF908E
:10051000EF90DF90CF90BF90AF909F908F90089515
:100520009DEC899F912D1124292F2695269526959E
:10053000220F322F330F330F230F821B282F969554
:1005400096959695662319F06130C9F1089591301A
:1005500091F028F09230D9F0933029F108953AB310
:1005600081E090E002C0880F991F2A95E2F78095FC
:1005700083238ABB089537B381E090E002C0880FDF
:10058000991F2A95E2F78095832387BB089534B39A
:1005900081E090E002C0880F991F2A95E2F78095CC
:1005A000832384BB089531B381E090E002C0880FBB
:1005B000991F2A95E2F78095832381BB0895913096
:1005C00089F028F09230C9F0933011F108953AB3D0
:1005D00081E090E002C0880F991F2A95E2F7832BF3
:1005E0008ABB089537B381E090E002C0880F991F5D
:1005F0002A95E2F7832B87BB089534B381E090E01E
:1006000002C0880F991F2A95E2F7832B84BB0895B7
:1006100031B381E090E002C0880F991F2A95E2F77C
:10062000832B81BB08959DEC899F912D1124292F47
:10063000269526952695220F322F330F330F230F41
:10064000821B282F969596959695662319F0613012
:10065000C9F10895913091F028F09230D9F093309B
:1006600029F108953BB381E090E002C0880F991F03
:100670002A95E2F7809583238BBB089538B381E0F8
:1006800090E002C0880F991F2A95E2F78095832396
:1006900088BB089535B381E090E002C0880F991FB0
:1006A0002A95E2F78095832385BB089532B381E0D4
:1006B00090E002C0880F991F2A95E2F78095832366
:1006C00082BB0895913089F028F09230C9F09330C0
:1006D00011F108953BB381E090E002C0880F991FAB
:1006E0002A95E2F7832B8BBB089538B381E090E025
:1006F00002C0880F991F2A95E2F7832B88BB0895C3
:1007000035B381E090E002C0880F991F2A95E2F787
:10071000832B85BB089532B381E090E002C0880F3F
:10072000991F2A95E2F7832B82BB08958CE080B94C
:1007300086B7846086BF089586B7806286BF86B715
:10074000806886BF06B607FEFDCF81B1887F8830FE
:10075000E1F70895880F83B986B7806886BF06B62B
:1007600007FEFDCF81B1887F8831E1F70895880FBA
:10077000816083B986B7806886BF06B607FEFDCF65
:1007800081B1887F8034E1F7089583B986B78F7D82
:1007900086BF86B7806886BF06B607FEFDCF81B1EB
:1007A000887F8832E1F7089586B78F7D86BF86B748
:1007B0008F7E86BF86B7806486BF86B7806886BF17
:1007C00006B607FEFDCF81B1887F8035E1F783B1A2
:1007D000089586B7806286BF86B7806886BF06B6F2
:1007E00007FEFDCF81B1887F8031E1F7089586B79C
:1007F000806186BF86B7806886BF0895EE0FFF1FB1
:0C0800000590F491E02D0994F894FFCFCE
:00000001FF
